{
  "_format": "hh-sol-artifact-1",
  "contractName": "GreenToken",
  "sourceName": "contracts/GreenToken.sol",
  "abi": [
    {
      "inputs": [
        {
          "internalType": "address",
          "name": "initialOwner",
          "type": "address"
        }
      ],
      "stateMutability": "nonpayable",
      "type": "constructor"
    },
    {
      "inputs": [
        {
          "internalType": "address",
          "name": "spender",
          "type": "address"
        },
        {
          "internalType": "uint256",
          "name": "allowance",
          "type": "uint256"
        },
        {
          "internalType": "uint256",
          "name": "needed",
          "type": "uint256"
        }
      ],
      "name": "ERC20InsufficientAllowance",
      "type": "error"
    },
    {
      "inputs": [
        {
          "internalType": "address",
          "name": "sender",
          "type": "address"
        },
        {
          "internalType": "uint256",
          "name": "balance",
          "type": "uint256"
        },
        {
          "internalType": "uint256",
          "name": "needed",
          "type": "uint256"
        }
      ],
      "name": "ERC20InsufficientBalance",
      "type": "error"
    },
    {
      "inputs": [
        {
          "internalType": "address",
          "name": "approver",
          "type": "address"
        }
      ],
      "name": "ERC20InvalidApprover",
      "type": "error"
    },
    {
      "inputs": [
        {
          "internalType": "address",
          "name": "receiver",
          "type": "address"
        }
      ],
      "name": "ERC20InvalidReceiver",
      "type": "error"
    },
    {
      "inputs": [
        {
          "internalType": "address",
          "name": "sender",
          "type": "address"
        }
      ],
      "name": "ERC20InvalidSender",
      "type": "error"
    },
    {
      "inputs": [
        {
          "internalType": "address",
          "name": "spender",
          "type": "address"
        }
      ],
      "name": "ERC20InvalidSpender",
      "type": "error"
    },
    {
      "inputs": [
        {
          "internalType": "address",
          "name": "owner",
          "type": "address"
        }
      ],
      "name": "OwnableInvalidOwner",
      "type": "error"
    },
    {
      "inputs": [
        {
          "internalType": "address",
          "name": "account",
          "type": "address"
        }
      ],
      "name": "OwnableUnauthorizedAccount",
      "type": "error"
    },
    {
      "anonymous": false,
      "inputs": [
        {
          "indexed": true,
          "internalType": "address",
          "name": "owner",
          "type": "address"
        },
        {
          "indexed": true,
          "internalType": "address",
          "name": "spender",
          "type": "address"
        },
        {
          "indexed": false,
          "internalType": "uint256",
          "name": "value",
          "type": "uint256"
        }
      ],
      "name": "Approval",
      "type": "event"
    },
    {
      "anonymous": false,
      "inputs": [
        {
          "indexed": true,
          "internalType": "address",
          "name": "user",
          "type": "address"
        },
        {
          "indexed": false,
          "internalType": "string",
          "name": "deviceType",
          "type": "string"
        },
        {
          "indexed": false,
          "internalType": "string",
          "name": "ipfsCID",
          "type": "string"
        }
      ],
      "name": "DeviceSubmitted",
      "type": "event"
    },
    {
      "anonymous": false,
      "inputs": [
        {
          "indexed": true,
          "internalType": "address",
          "name": "previousOwner",
          "type": "address"
        },
        {
          "indexed": true,
          "internalType": "address",
          "name": "newOwner",
          "type": "address"
        }
      ],
      "name": "OwnershipTransferred",
      "type": "event"
    },
    {
      "anonymous": false,
      "inputs": [
        {
          "indexed": true,
          "internalType": "address",
          "name": "user",
          "type": "address"
        },
        {
          "indexed": false,
          "internalType": "uint256",
          "name": "amount",
          "type": "uint256"
        },
        {
          "indexed": false,
          "internalType": "string",
          "name": "deviceType",
          "type": "string"
        }
      ],
      "name": "TokenMinted",
      "type": "event"
    },
    {
      "anonymous": false,
      "inputs": [
        {
          "indexed": true,
          "internalType": "address",
          "name": "from",
          "type": "address"
        },
        {
          "indexed": true,
          "internalType": "address",
          "name": "to",
          "type": "address"
        },
        {
          "indexed": false,
          "internalType": "uint256",
          "name": "value",
          "type": "uint256"
        }
      ],
      "name": "Transfer",
      "type": "event"
    },
    {
      "inputs": [
        {
          "internalType": "string",
          "name": "_deviceType",
          "type": "string"
        },
        {
          "internalType": "string",
          "name": "_ipfsCID",
          "type": "string"
        }
      ],
      "name": "addDevice",
      "outputs": [],
      "stateMutability": "nonpayable",
      "type": "function"
    },
    {
      "inputs": [
        {
          "internalType": "address",
          "name": "owner",
          "type": "address"
        },
        {
          "internalType": "address",
          "name": "spender",
          "type": "address"
        }
      ],
      "name": "allowance",
      "outputs": [
        {
          "internalType": "uint256",
          "name": "",
          "type": "uint256"
        }
      ],
      "stateMutability": "view",
      "type": "function"
    },
    {
      "inputs": [
        {
          "internalType": "address",
          "name": "spender",
          "type": "address"
        },
        {
          "internalType": "uint256",
          "name": "value",
          "type": "uint256"
        }
      ],
      "name": "approve",
      "outputs": [
        {
          "internalType": "bool",
          "name": "",
          "type": "bool"
        }
      ],
      "stateMutability": "nonpayable",
      "type": "function"
    },
    {
      "inputs": [
        {
          "internalType": "address",
          "name": "account",
          "type": "address"
        }
      ],
      "name": "balanceOf",
      "outputs": [
        {
          "internalType": "uint256",
          "name": "",
          "type": "uint256"
        }
      ],
      "stateMutability": "view",
      "type": "function"
    },
    {
      "inputs": [],
      "name": "decimals",
      "outputs": [
        {
          "internalType": "uint8",
          "name": "",
          "type": "uint8"
        }
      ],
      "stateMutability": "view",
      "type": "function"
    },
    {
      "inputs": [
        {
          "internalType": "uint256",
          "name": "",
          "type": "uint256"
        }
      ],
      "name": "devices",
      "outputs": [
        {
          "internalType": "address",
          "name": "user",
          "type": "address"
        },
        {
          "internalType": "string",
          "name": "deviceType",
          "type": "string"
        },
        {
          "internalType": "string",
          "name": "ipfsCID",
          "type": "string"
        },
        {
          "internalType": "uint256",
          "name": "timestamp",
          "type": "uint256"
        },
        {
          "internalType": "bool",
          "name": "verified",
          "type": "bool"
        }
      ],
      "stateMutability": "view",
      "type": "function"
    },
    {
      "inputs": [],
      "name": "getAllDevices",
      "outputs": [
        {
          "components": [
            {
              "internalType": "address",
              "name": "user",
              "type": "address"
            },
            {
              "internalType": "string",
              "name": "deviceType",
              "type": "string"
            },
            {
              "internalType": "string",
              "name": "ipfsCID",
              "type": "string"
            },
            {
              "internalType": "uint256",
              "name": "timestamp",
              "type": "uint256"
            },
            {
              "internalType": "bool",
              "name": "verified",
              "type": "bool"
            }
          ],
          "internalType": "struct GreenToken.DeviceSubmission[]",
          "name": "",
          "type": "tuple[]"
        }
      ],
      "stateMutability": "view",
      "type": "function"
    },
    {
      "inputs": [],
      "name": "name",
      "outputs": [
        {
          "internalType": "string",
          "name": "",
          "type": "string"
        }
      ],
      "stateMutability": "view",
      "type": "function"
    },
    {
      "inputs": [],
      "name": "owner",
      "outputs": [
        {
          "internalType": "address",
          "name": "",
          "type": "address"
        }
      ],
      "stateMutability": "view",
      "type": "function"
    },
    {
      "inputs": [],
      "name": "renounceOwnership",
      "outputs": [],
      "stateMutability": "nonpayable",
      "type": "function"
    },
    {
      "inputs": [],
      "name": "submissionCount",
      "outputs": [
        {
          "internalType": "uint256",
          "name": "",
          "type": "uint256"
        }
      ],
      "stateMutability": "view",
      "type": "function"
    },
    {
      "inputs": [
        {
          "internalType": "uint256",
          "name": "",
          "type": "uint256"
        }
      ],
      "name": "submissions",
      "outputs": [
        {
          "internalType": "address",
          "name": "user",
          "type": "address"
        },
        {
          "internalType": "string",
          "name": "deviceType",
          "type": "string"
        },
        {
          "internalType": "string",
          "name": "ipfsCID",
          "type": "string"
        },
        {
          "internalType": "uint256",
          "name": "timestamp",
          "type": "uint256"
        },
        {
          "internalType": "bool",
          "name": "verified",
          "type": "bool"
        }
      ],
      "stateMutability": "view",
      "type": "function"
    },
    {
      "inputs": [],
      "name": "symbol",
      "outputs": [
        {
          "internalType": "string",
          "name": "",
          "type": "string"
        }
      ],
      "stateMutability": "view",
      "type": "function"
    },
    {
      "inputs": [],
      "name": "totalSupply",
      "outputs": [
        {
          "internalType": "uint256",
          "name": "",
          "type": "uint256"
        }
      ],
      "stateMutability": "view",
      "type": "function"
    },
    {
      "inputs": [
        {
          "internalType": "address",
          "name": "to",
          "type": "address"
        },
        {
          "internalType": "uint256",
          "name": "value",
          "type": "uint256"
        }
      ],
      "name": "transfer",
      "outputs": [
        {
          "internalType": "bool",
          "name": "",
          "type": "bool"
        }
      ],
      "stateMutability": "nonpayable",
      "type": "function"
    },
    {
      "inputs": [
        {
          "internalType": "address",
          "name": "from",
          "type": "address"
        },
        {
          "internalType": "address",
          "name": "to",
          "type": "address"
        },
        {
          "internalType": "uint256",
          "name": "value",
          "type": "uint256"
        }
      ],
      "name": "transferFrom",
      "outputs": [
        {
          "internalType": "bool",
          "name": "",
          "type": "bool"
        }
      ],
      "stateMutability": "nonpayable",
      "type": "function"
    },
    {
      "inputs": [
        {
          "internalType": "address",
          "name": "newOwner",
          "type": "address"
        }
      ],
      "name": "transferOwnership",
      "outputs": [],
      "stateMutability": "nonpayable",
      "type": "function"
    },
    {
      "inputs": [
        {
          "internalType": "uint256",
          "name": "_id",
          "type": "uint256"
        }
      ],
      "name": "verifyAndReward",
      "outputs": [],
      "stateMutability": "nonpayable",
      "type": "function"
    }
  ],
  "bytecode": "0x608060405234801561001057600080fd5b50604051612b04380380612b0483398181016040528101906100329190610272565b806040518060400160405280600a81526020017f477265656e546f6b656e000000000000000000000000000000000000000000008152506040518060400160405280600281526020017f475400000000000000000000000000000000000000000000000000000000000081525081600390816100ae91906104ef565b5080600490816100be91906104ef565b505050600073ffffffffffffffffffffffffffffffffffffffff168173ffffffffffffffffffffffffffffffffffffffff16036101335760006040517f1e4fbdf700000000000000000000000000000000000000000000000000000000815260040161012a91906105d0565b60405180910390fd5b6101428161014960201b60201c565b50506105eb565b6000600560009054906101000a900473ffffffffffffffffffffffffffffffffffffffff16905081600560006101000a81548173ffffffffffffffffffffffffffffffffffffffff021916908373ffffffffffffffffffffffffffffffffffffffff1602179055508173ffffffffffffffffffffffffffffffffffffffff168173ffffffffffffffffffffffffffffffffffffffff167f8be0079c531659141344cd1fd0a4f28419497f9722a3daafe3b4186f6b6457e060405160405180910390a35050565b600080fd5b600073ffffffffffffffffffffffffffffffffffffffff82169050919050565b600061023f82610214565b9050919050565b61024f81610234565b811461025a57600080fd5b50565b60008151905061026c81610246565b92915050565b6000602082840312156102885761028761020f565b5b60006102968482850161025d565b91505092915050565b600081519050919050565b7f4e487b7100000000000000000000000000000000000000000000000000000000600052604160045260246000fd5b7f4e487b7100000000000000000000000000000000000000000000000000000000600052602260045260246000fd5b6000600282049050600182168061032057607f821691505b602082108103610333576103326102d9565b5b50919050565b60008190508160005260206000209050919050565b60006020601f8301049050919050565b600082821b905092915050565b60006008830261039b7fffffffffffffffffffffffffffffffffffffffffffffffffffffffffffffffff8261035e565b6103a5868361035e565b95508019841693508086168417925050509392505050565b6000819050919050565b6000819050919050565b60006103ec6103e76103e2846103bd565b6103c7565b6103bd565b9050919050565b6000819050919050565b610406836103d1565b61041a610412826103f3565b84845461036b565b825550505050565b600090565b61042f610422565b61043a8184846103fd565b505050565b5b8181101561045e57610453600082610427565b600181019050610440565b5050565b601f8211156104a35761047481610339565b61047d8461034e565b8101602085101561048c578190505b6104a06104988561034e565b83018261043f565b50505b505050565b600082821c905092915050565b60006104c6600019846008026104a8565b1980831691505092915050565b60006104df83836104b5565b9150826002028217905092915050565b6104f88261029f565b67ffffffffffffffff811115610511576105106102aa565b5b61051b8254610308565b610526828285610462565b600060209050601f8311600181146105595760008415610547578287015190505b61055185826104d3565b8655506105b9565b601f19841661056786610339565b60005b8281101561058f5784890151825560018201915060208501945060208101905061056a565b868310156105ac57848901516105a8601f8916826104b5565b8355505b6001600288020188555050505b505050505050565b6105ca81610234565b82525050565b60006020820190506105e560008301846105c1565b92915050565b61250a806105fa6000396000f3fe608060405234801561001057600080fd5b50600436106101165760003560e01c8063715018a6116100a2578063a9059cbb11610071578063a9059cbb146102d7578063ad73349e14610307578063b85d82611461033b578063dd62ed3e14610357578063f2fde38b1461038757610116565b8063715018a6146102735780637a2a530d1461027d5780638da5cb5b1461029b57806395d89b41146102b957610116565b806323b872dd116100e957806323b872dd146101bb578063313ce567146101eb57806343ff7efd146102095780636ec02be91461022557806370a082311461024357610116565b806306fdde031461011b578063095ea7b31461013957806310ff8e311461016957806318160ddd1461019d575b600080fd5b6101236103a3565b6040516101309190611871565b60405180910390f35b610153600480360381019061014e919061193b565b610435565b6040516101609190611996565b60405180910390f35b610183600480360381019061017e91906119b1565b610458565b6040516101949594939291906119fc565b60405180910390f35b6101a56105db565b6040516101b29190611a5d565b60405180910390f35b6101d560048036038101906101d09190611a78565b6105e5565b6040516101e29190611996565b60405180910390f35b6101f3610614565b6040516102009190611ae7565b60405180910390f35b610223600480360381019061021e91906119b1565b61061d565b005b61022d610845565b60405161023a9190611a5d565b60405180910390f35b61025d60048036038101906102589190611b02565b61084b565b60405161026a9190611a5d565b60405180910390f35b61027b610893565b005b6102856108a7565b6040516102929190611ce5565b60405180910390f35b6102a3610aa5565b6040516102b09190611d07565b60405180910390f35b6102c1610acf565b6040516102ce9190611871565b60405180910390f35b6102f160048036038101906102ec919061193b565b610b61565b6040516102fe9190611996565b60405180910390f35b610321600480360381019061031c91906119b1565b610b84565b6040516103329594939291906119fc565b60405180910390f35b61035560048036038101906103509190611e57565b610cf7565b005b610371600480360381019061036c9190611ecf565b610e58565b60405161037e9190611a5d565b60405180910390f35b6103a1600480360381019061039c9190611b02565b610edf565b005b6060600380546103b290611f3e565b80601f01602080910402602001604051908101604052809291908181526020018280546103de90611f3e565b801561042b5780601f106104005761010080835404028352916020019161042b565b820191906000526020600020905b81548152906001019060200180831161040e57829003601f168201915b5050505050905090565b600080610440610f65565b905061044d818585610f6d565b600191505092915050565b6006818154811061046857600080fd5b90600052602060002090600502016000915090508060000160009054906101000a900473ffffffffffffffffffffffffffffffffffffffff16908060010180546104b190611f3e565b80601f01602080910402602001604051908101604052809291908181526020018280546104dd90611f3e565b801561052a5780601f106104ff5761010080835404028352916020019161052a565b820191906000526020600020905b81548152906001019060200180831161050d57829003601f168201915b50505050509080600201805461053f90611f3e565b80601f016020809104026020016040519081016040528092919081815260200182805461056b90611f3e565b80156105b85780601f1061058d576101008083540402835291602001916105b8565b820191906000526020600020905b81548152906001019060200180831161059b57829003601f168201915b5050505050908060030154908060040160009054906101000a900460ff16905085565b6000600254905090565b6000806105f0610f65565b90506105fd858285610f7f565b610608858585611014565b60019150509392505050565b60006012905090565b610625611108565b6008548110610669576040517f08c379a000000000000000000000000000000000000000000000000000000000815260040161066090611fbb565b60405180910390fd5b60006007600083815260200190815260200160002090508060040160009054906101000a900460ff16156106d2576040517f08c379a00000000000000000000000000000000000000000000000000000000081526004016106c990612027565b60405180910390fd5b60006107698260010180546106e690611f3e565b80601f016020809104026020016040519081016040528092919081815260200182805461071290611f3e565b801561075f5780601f106107345761010080835404028352916020019161075f565b820191906000526020600020905b81548152906001019060200180831161074257829003601f168201915b505050505061118f565b90506107ac8260000160009054906101000a900473ffffffffffffffffffffffffffffffffffffffff16670de0b6b3a7640000836107a79190612076565b611282565b60018260040160006101000a81548160ff0219169083151502179055508160000160009054906101000a900473ffffffffffffffffffffffffffffffffffffffff1673ffffffffffffffffffffffffffffffffffffffff167fdf92894dc4675a7333caa5903b69cf5d8e8ec0d3f361c88207b6688e525703bb8284600101604051610838929190612151565b60405180910390a2505050565b60085481565b60008060008373ffffffffffffffffffffffffffffffffffffffff1673ffffffffffffffffffffffffffffffffffffffff168152602001908152602001600020549050919050565b61089b611108565b6108a56000611304565b565b60606006805480602002602001604051908101604052809291908181526020016000905b82821015610a9c57838290600052602060002090600502016040518060a00160405290816000820160009054906101000a900473ffffffffffffffffffffffffffffffffffffffff1673ffffffffffffffffffffffffffffffffffffffff1673ffffffffffffffffffffffffffffffffffffffff16815260200160018201805461095490611f3e565b80601f016020809104026020016040519081016040528092919081815260200182805461098090611f3e565b80156109cd5780601f106109a2576101008083540402835291602001916109cd565b820191906000526020600020905b8154815290600101906020018083116109b057829003601f168201915b505050505081526020016002820180546109e690611f3e565b80601f0160208091040260200160405190810160405280929190818152602001828054610a1290611f3e565b8015610a5f5780601f10610a3457610100808354040283529160200191610a5f565b820191906000526020600020905b815481529060010190602001808311610a4257829003601f168201915b50505050508152602001600382015481526020016004820160009054906101000a900460ff161515151581525050815260200190600101906108cb565b50505050905090565b6000600560009054906101000a900473ffffffffffffffffffffffffffffffffffffffff16905090565b606060048054610ade90611f3e565b80601f0160208091040260200160405190810160405280929190818152602001828054610b0a90611f3e565b8015610b575780601f10610b2c57610100808354040283529160200191610b57565b820191906000526020600020905b815481529060010190602001808311610b3a57829003601f168201915b5050505050905090565b600080610b6c610f65565b9050610b79818585611014565b600191505092915050565b60076020528060005260406000206000915090508060000160009054906101000a900473ffffffffffffffffffffffffffffffffffffffff1690806001018054610bcd90611f3e565b80601f0160208091040260200160405190810160405280929190818152602001828054610bf990611f3e565b8015610c465780601f10610c1b57610100808354040283529160200191610c46565b820191906000526020600020905b815481529060010190602001808311610c2957829003601f168201915b505050505090806002018054610c5b90611f3e565b80601f0160208091040260200160405190810160405280929190818152602001828054610c8790611f3e565b8015610cd45780601f10610ca957610100808354040283529160200191610cd4565b820191906000526020600020905b815481529060010190602001808311610cb757829003601f168201915b5050505050908060030154908060040160009054906101000a900460ff16905085565b6040518060a001604052803373ffffffffffffffffffffffffffffffffffffffff1681526020018381526020018281526020014281526020016000151581525060076000600854815260200190815260200160002060008201518160000160006101000a81548173ffffffffffffffffffffffffffffffffffffffff021916908373ffffffffffffffffffffffffffffffffffffffff1602179055506020820151816001019081610da89190612318565b506040820151816002019081610dbe9190612318565b506060820151816003015560808201518160040160006101000a81548160ff0219169083151502179055509050503373ffffffffffffffffffffffffffffffffffffffff167fea2aa78e0054b90a1e6fc7bb2c5a73ded60a6052f17060303b87849038f2915c8383604051610e349291906123ea565b60405180910390a260086000815480929190610e4f90612421565b91905055505050565b6000600160008473ffffffffffffffffffffffffffffffffffffffff1673ffffffffffffffffffffffffffffffffffffffff16815260200190815260200160002060008373ffffffffffffffffffffffffffffffffffffffff1673ffffffffffffffffffffffffffffffffffffffff16815260200190815260200160002054905092915050565b610ee7611108565b600073ffffffffffffffffffffffffffffffffffffffff168173ffffffffffffffffffffffffffffffffffffffff1603610f595760006040517f1e4fbdf7000000000000000000000000000000000000000000000000000000008152600401610f509190611d07565b60405180910390fd5b610f6281611304565b50565b600033905090565b610f7a83838360016113ca565b505050565b6000610f8b8484610e58565b90507fffffffffffffffffffffffffffffffffffffffffffffffffffffffffffffffff81101561100e5781811015610ffe578281836040517ffb8f41b2000000000000000000000000000000000000000000000000000000008152600401610ff593929190612469565b60405180910390fd5b61100d848484840360006113ca565b5b50505050565b600073ffffffffffffffffffffffffffffffffffffffff168373ffffffffffffffffffffffffffffffffffffffff16036110865760006040517f96c6fd1e00000000000000000000000000000000000000000000000000000000815260040161107d9190611d07565b60405180910390fd5b600073ffffffffffffffffffffffffffffffffffffffff168273ffffffffffffffffffffffffffffffffffffffff16036110f85760006040517fec442f050000000000000000000000000000000000000000000000000000000081526004016110ef9190611d07565b60405180910390fd5b6111038383836115a1565b505050565b611110610f65565b73ffffffffffffffffffffffffffffffffffffffff1661112e610aa5565b73ffffffffffffffffffffffffffffffffffffffff161461118d57611151610f65565b6040517f118cdaa70000000000000000000000000000000000000000000000000000000081526004016111849190611d07565b60405180910390fd5b565b60006111d0826040518060400160405280600681526020017f6c6170746f7000000000000000000000000000000000000000000000000000008152506117c6565b156111de576014905061127d565b61121d826040518060400160405280600581526020017f70686f6e650000000000000000000000000000000000000000000000000000008152506117c6565b1561122b57600a905061127d565b61126a826040518060400160405280600881526020017f636f6d70757465720000000000000000000000000000000000000000000000008152506117c6565b15611278576014905061127d565b600590505b919050565b600073ffffffffffffffffffffffffffffffffffffffff168273ffffffffffffffffffffffffffffffffffffffff16036112f45760006040517fec442f050000000000000000000000000000000000000000000000000000000081526004016112eb9190611d07565b60405180910390fd5b611300600083836115a1565b5050565b6000600560009054906101000a900473ffffffffffffffffffffffffffffffffffffffff16905081600560006101000a81548173ffffffffffffffffffffffffffffffffffffffff021916908373ffffffffffffffffffffffffffffffffffffffff1602179055508173ffffffffffffffffffffffffffffffffffffffff168173ffffffffffffffffffffffffffffffffffffffff167f8be0079c531659141344cd1fd0a4f28419497f9722a3daafe3b4186f6b6457e060405160405180910390a35050565b600073ffffffffffffffffffffffffffffffffffffffff168473ffffffffffffffffffffffffffffffffffffffff160361143c5760006040517fe602df050000000000000000000000000000000000000000000000000000000081526004016114339190611d07565b60405180910390fd5b600073ffffffffffffffffffffffffffffffffffffffff168373ffffffffffffffffffffffffffffffffffffffff16036114ae5760006040517f94280d620000000000000000000000000000000000000000000000000000000081526004016114a59190611d07565b60405180910390fd5b81600160008673ffffffffffffffffffffffffffffffffffffffff1673ffffffffffffffffffffffffffffffffffffffff16815260200190815260200160002060008573ffffffffffffffffffffffffffffffffffffffff1673ffffffffffffffffffffffffffffffffffffffff16815260200190815260200160002081905550801561159b578273ffffffffffffffffffffffffffffffffffffffff168473ffffffffffffffffffffffffffffffffffffffff167f8c5be1e5ebec7d5bd14f71427d1e84f3dd0314c0f7b2291e5b200ac8c7c3b925846040516115929190611a5d565b60405180910390a35b50505050565b600073ffffffffffffffffffffffffffffffffffffffff168373ffffffffffffffffffffffffffffffffffffffff16036115f35780600260008282546115e791906124a0565b925050819055506116c6565b60008060008573ffffffffffffffffffffffffffffffffffffffff1673ffffffffffffffffffffffffffffffffffffffff1681526020019081526020016000205490508181101561167f578381836040517fe450d38c00000000000000000000000000000000000000000000000000000000815260040161167693929190612469565b60405180910390fd5b8181036000808673ffffffffffffffffffffffffffffffffffffffff1673ffffffffffffffffffffffffffffffffffffffff16815260200190815260200160002081905550505b600073ffffffffffffffffffffffffffffffffffffffff168273ffffffffffffffffffffffffffffffffffffffff160361170f578060026000828254039250508190555061175c565b806000808473ffffffffffffffffffffffffffffffffffffffff1673ffffffffffffffffffffffffffffffffffffffff168152602001908152602001600020600082825401925050819055505b8173ffffffffffffffffffffffffffffffffffffffff168373ffffffffffffffffffffffffffffffffffffffff167fddf252ad1be2c89b69c2b068fc378daa952ba7f163c4a11628f55a4df523b3ef836040516117b99190611a5d565b60405180910390a3505050565b60008180519060200120838051906020012014905092915050565b600081519050919050565b600082825260208201905092915050565b60005b8381101561181b578082015181840152602081019050611800565b60008484015250505050565b6000601f19601f8301169050919050565b6000611843826117e1565b61184d81856117ec565b935061185d8185602086016117fd565b61186681611827565b840191505092915050565b6000602082019050818103600083015261188b8184611838565b905092915050565b6000604051905090565b600080fd5b600080fd5b600073ffffffffffffffffffffffffffffffffffffffff82169050919050565b60006118d2826118a7565b9050919050565b6118e2816118c7565b81146118ed57600080fd5b50565b6000813590506118ff816118d9565b92915050565b6000819050919050565b61191881611905565b811461192357600080fd5b50565b6000813590506119358161190f565b92915050565b600080604083850312156119525761195161189d565b5b6000611960858286016118f0565b925050602061197185828601611926565b9150509250929050565b60008115159050919050565b6119908161197b565b82525050565b60006020820190506119ab6000830184611987565b92915050565b6000602082840312156119c7576119c661189d565b5b60006119d584828501611926565b91505092915050565b6119e7816118c7565b82525050565b6119f681611905565b82525050565b600060a082019050611a1160008301886119de565b8181036020830152611a238187611838565b90508181036040830152611a378186611838565b9050611a4660608301856119ed565b611a536080830184611987565b9695505050505050565b6000602082019050611a7260008301846119ed565b92915050565b600080600060608486031215611a9157611a9061189d565b5b6000611a9f868287016118f0565b9350506020611ab0868287016118f0565b9250506040611ac186828701611926565b9150509250925092565b600060ff82169050919050565b611ae181611acb565b82525050565b6000602082019050611afc6000830184611ad8565b92915050565b600060208284031215611b1857611b1761189d565b5b6000611b26848285016118f0565b91505092915050565b600081519050919050565b600082825260208201905092915050565b6000819050602082019050919050565b611b64816118c7565b82525050565b600082825260208201905092915050565b6000611b86826117e1565b611b908185611b6a565b9350611ba08185602086016117fd565b611ba981611827565b840191505092915050565b611bbd81611905565b82525050565b611bcc8161197b565b82525050565b600060a083016000830151611bea6000860182611b5b565b5060208301518482036020860152611c028282611b7b565b91505060408301518482036040860152611c1c8282611b7b565b9150506060830151611c316060860182611bb4565b506080830151611c446080860182611bc3565b508091505092915050565b6000611c5b8383611bd2565b905092915050565b6000602082019050919050565b6000611c7b82611b2f565b611c858185611b3a565b935083602082028501611c9785611b4b565b8060005b85811015611cd35784840389528151611cb48582611c4f565b9450611cbf83611c63565b925060208a01995050600181019050611c9b565b50829750879550505050505092915050565b60006020820190508181036000830152611cff8184611c70565b905092915050565b6000602082019050611d1c60008301846119de565b92915050565b600080fd5b600080fd5b7f4e487b7100000000000000000000000000000000000000000000000000000000600052604160045260246000fd5b611d6482611827565b810181811067ffffffffffffffff82111715611d8357611d82611d2c565b5b80604052505050565b6000611d96611893565b9050611da28282611d5b565b919050565b600067ffffffffffffffff821115611dc257611dc1611d2c565b5b611dcb82611827565b9050602081019050919050565b82818337600083830152505050565b6000611dfa611df584611da7565b611d8c565b905082815260208101848484011115611e1657611e15611d27565b5b611e21848285611dd8565b509392505050565b600082601f830112611e3e57611e3d611d22565b5b8135611e4e848260208601611de7565b91505092915050565b60008060408385031215611e6e57611e6d61189d565b5b600083013567ffffffffffffffff811115611e8c57611e8b6118a2565b5b611e9885828601611e29565b925050602083013567ffffffffffffffff811115611eb957611eb86118a2565b5b611ec585828601611e29565b9150509250929050565b60008060408385031215611ee657611ee561189d565b5b6000611ef4858286016118f0565b9250506020611f05858286016118f0565b9150509250929050565b7f4e487b7100000000000000000000000000000000000000000000000000000000600052602260045260246000fd5b60006002820490506001821680611f5657607f821691505b602082108103611f6957611f68611f0f565b5b50919050565b7f496e76616c696420494400000000000000000000000000000000000000000000600082015250565b6000611fa5600a836117ec565b9150611fb082611f6f565b602082019050919050565b60006020820190508181036000830152611fd481611f98565b9050919050565b7f416c726561647920566572696669656400000000000000000000000000000000600082015250565b60006120116010836117ec565b915061201c82611fdb565b602082019050919050565b6000602082019050818103600083015261204081612004565b9050919050565b7f4e487b7100000000000000000000000000000000000000000000000000000000600052601160045260246000fd5b600061208182611905565b915061208c83611905565b925082820261209a81611905565b915082820484148315176120b1576120b0612047565b5b5092915050565b60008190508160005260206000209050919050565b600081546120da81611f3e565b6120e481866117ec565b945060018216600081146120ff576001811461211557612148565b60ff198316865281151560200286019350612148565b61211e856120b8565b60005b8381101561214057815481890152600182019150602081019050612121565b808801955050505b50505092915050565b600060408201905061216660008301856119ed565b818103602083015261217881846120cd565b90509392505050565b60006020601f8301049050919050565b600082821b905092915050565b6000600883026121ce7fffffffffffffffffffffffffffffffffffffffffffffffffffffffffffffffff82612191565b6121d88683612191565b95508019841693508086168417925050509392505050565b6000819050919050565b600061221561221061220b84611905565b6121f0565b611905565b9050919050565b6000819050919050565b61222f836121fa565b61224361223b8261221c565b84845461219e565b825550505050565b600090565b61225861224b565b612263818484612226565b505050565b5b818110156122875761227c600082612250565b600181019050612269565b5050565b601f8211156122cc5761229d816120b8565b6122a684612181565b810160208510156122b5578190505b6122c96122c185612181565b830182612268565b50505b505050565b600082821c905092915050565b60006122ef600019846008026122d1565b1980831691505092915050565b600061230883836122de565b9150826002028217905092915050565b612321826117e1565b67ffffffffffffffff81111561233a57612339611d2c565b5b6123448254611f3e565b61234f82828561228b565b600060209050601f8311600181146123825760008415612370578287015190505b61237a85826122fc565b8655506123e2565b601f198416612390866120b8565b60005b828110156123b857848901518255600182019150602085019450602081019050612393565b868310156123d557848901516123d1601f8916826122de565b8355505b6001600288020188555050505b505050505050565b600060408201905081810360008301526124048185611838565b905081810360208301526124188184611838565b90509392505050565b600061242c82611905565b91507fffffffffffffffffffffffffffffffffffffffffffffffffffffffffffffffff820361245e5761245d612047565b5b600182019050919050565b600060608201905061247e60008301866119de565b61248b60208301856119ed565b61249860408301846119ed565b949350505050565b60006124ab82611905565b91506124b683611905565b92508282019050808211156124ce576124cd612047565b5b9291505056fea264697066735822122038e3a6aed887ba5e305b56cd619ac255208a8edc4c1a16728206168da3d5342b64736f6c634300081e0033",
  "linkReferences": {},
  "deployedLinkReferences": {}
}