{
  "_format": "hh-sol-artifact-1",
  "contractName": "GreenToken",
  "sourceName": "contracts/GreenToken.sol",
  "abi": [
    {
      "inputs": [
        {
          "internalType": "address",
          "name": "initialOwner",
          "type": "address"
        }
      ],
      "stateMutability": "nonpayable",
      "type": "constructor"
    },
    {
      "inputs": [
        {
          "internalType": "address",
          "name": "spender",
          "type": "address"
        },
        {
          "internalType": "uint256",
          "name": "allowance",
          "type": "uint256"
        },
        {
          "internalType": "uint256",
          "name": "needed",
          "type": "uint256"
        }
      ],
      "name": "ERC20InsufficientAllowance",
      "type": "error"
    },
    {
      "inputs": [
        {
          "internalType": "address",
          "name": "sender",
          "type": "address"
        },
        {
          "internalType": "uint256",
          "name": "balance",
          "type": "uint256"
        },
        {
          "internalType": "uint256",
          "name": "needed",
          "type": "uint256"
        }
      ],
      "name": "ERC20InsufficientBalance",
      "type": "error"
    },
    {
      "inputs": [
        {
          "internalType": "address",
          "name": "approver",
          "type": "address"
        }
      ],
      "name": "ERC20InvalidApprover",
      "type": "error"
    },
    {
      "inputs": [
        {
          "internalType": "address",
          "name": "receiver",
          "type": "address"
        }
      ],
      "name": "ERC20InvalidReceiver",
      "type": "error"
    },
    {
      "inputs": [
        {
          "internalType": "address",
          "name": "sender",
          "type": "address"
        }
      ],
      "name": "ERC20InvalidSender",
      "type": "error"
    },
    {
      "inputs": [
        {
          "internalType": "address",
          "name": "spender",
          "type": "address"
        }
      ],
      "name": "ERC20InvalidSpender",
      "type": "error"
    },
    {
      "inputs": [
        {
          "internalType": "address",
          "name": "owner",
          "type": "address"
        }
      ],
      "name": "OwnableInvalidOwner",
      "type": "error"
    },
    {
      "inputs": [
        {
          "internalType": "address",
          "name": "account",
          "type": "address"
        }
      ],
      "name": "OwnableUnauthorizedAccount",
      "type": "error"
    },
    {
      "anonymous": false,
      "inputs": [
        {
          "indexed": true,
          "internalType": "address",
          "name": "owner",
          "type": "address"
        },
        {
          "indexed": true,
          "internalType": "address",
          "name": "spender",
          "type": "address"
        },
        {
          "indexed": false,
          "internalType": "uint256",
          "name": "value",
          "type": "uint256"
        }
      ],
      "name": "Approval",
      "type": "event"
    },
    {
      "anonymous": false,
      "inputs": [
        {
          "indexed": true,
          "internalType": "address",
          "name": "user",
          "type": "address"
        },
        {
          "indexed": false,
          "internalType": "string",
          "name": "deviceType",
          "type": "string"
        },
        {
          "indexed": false,
          "internalType": "string",
          "name": "ipfsCID",
          "type": "string"
        }
      ],
      "name": "DeviceSubmitted",
      "type": "event"
    },
    {
      "anonymous": false,
      "inputs": [
        {
          "indexed": true,
          "internalType": "address",
          "name": "previousOwner",
          "type": "address"
        },
        {
          "indexed": true,
          "internalType": "address",
          "name": "newOwner",
          "type": "address"
        }
      ],
      "name": "OwnershipTransferred",
      "type": "event"
    },
    {
      "anonymous": false,
      "inputs": [
        {
          "indexed": true,
          "internalType": "address",
          "name": "user",
          "type": "address"
        },
        {
          "indexed": false,
          "internalType": "uint256",
          "name": "amount",
          "type": "uint256"
        },
        {
          "indexed": false,
          "internalType": "string",
          "name": "deviceType",
          "type": "string"
        }
      ],
      "name": "TokenMinted",
      "type": "event"
    },
    {
      "anonymous": false,
      "inputs": [
        {
          "indexed": true,
          "internalType": "address",
          "name": "from",
          "type": "address"
        },
        {
          "indexed": true,
          "internalType": "address",
          "name": "to",
          "type": "address"
        },
        {
          "indexed": false,
          "internalType": "uint256",
          "name": "value",
          "type": "uint256"
        }
      ],
      "name": "Transfer",
      "type": "event"
    },
    {
      "inputs": [
        {
          "internalType": "string",
          "name": "_deviceType",
          "type": "string"
        },
        {
          "internalType": "string",
          "name": "_ipfsCID",
          "type": "string"
        }
      ],
      "name": "addDevice",
      "outputs": [],
      "stateMutability": "nonpayable",
      "type": "function"
    },
    {
      "inputs": [
        {
          "internalType": "address",
          "name": "owner",
          "type": "address"
        },
        {
          "internalType": "address",
          "name": "spender",
          "type": "address"
        }
      ],
      "name": "allowance",
      "outputs": [
        {
          "internalType": "uint256",
          "name": "",
          "type": "uint256"
        }
      ],
      "stateMutability": "view",
      "type": "function"
    },
    {
      "inputs": [
        {
          "internalType": "address",
          "name": "spender",
          "type": "address"
        },
        {
          "internalType": "uint256",
          "name": "value",
          "type": "uint256"
        }
      ],
      "name": "approve",
      "outputs": [
        {
          "internalType": "bool",
          "name": "",
          "type": "bool"
        }
      ],
      "stateMutability": "nonpayable",
      "type": "function"
    },
    {
      "inputs": [
        {
          "internalType": "address",
          "name": "account",
          "type": "address"
        }
      ],
      "name": "balanceOf",
      "outputs": [
        {
          "internalType": "uint256",
          "name": "",
          "type": "uint256"
        }
      ],
      "stateMutability": "view",
      "type": "function"
    },
    {
      "inputs": [],
      "name": "decimals",
      "outputs": [
        {
          "internalType": "uint8",
          "name": "",
          "type": "uint8"
        }
      ],
      "stateMutability": "view",
      "type": "function"
    },
    {
      "inputs": [],
      "name": "name",
      "outputs": [
        {
          "internalType": "string",
          "name": "",
          "type": "string"
        }
      ],
      "stateMutability": "view",
      "type": "function"
    },
    {
      "inputs": [],
      "name": "owner",
      "outputs": [
        {
          "internalType": "address",
          "name": "",
          "type": "address"
        }
      ],
      "stateMutability": "view",
      "type": "function"
    },
    {
      "inputs": [],
      "name": "renounceOwnership",
      "outputs": [],
      "stateMutability": "nonpayable",
      "type": "function"
    },
    {
      "inputs": [],
      "name": "submissionCount",
      "outputs": [
        {
          "internalType": "uint256",
          "name": "",
          "type": "uint256"
        }
      ],
      "stateMutability": "view",
      "type": "function"
    },
    {
      "inputs": [
        {
          "internalType": "uint256",
          "name": "",
          "type": "uint256"
        }
      ],
      "name": "submissions",
      "outputs": [
        {
          "internalType": "address",
          "name": "user",
          "type": "address"
        },
        {
          "internalType": "string",
          "name": "deviceType",
          "type": "string"
        },
        {
          "internalType": "string",
          "name": "ipfsCID",
          "type": "string"
        },
        {
          "internalType": "uint256",
          "name": "timestamp",
          "type": "uint256"
        },
        {
          "internalType": "bool",
          "name": "verified",
          "type": "bool"
        }
      ],
      "stateMutability": "view",
      "type": "function"
    },
    {
      "inputs": [],
      "name": "symbol",
      "outputs": [
        {
          "internalType": "string",
          "name": "",
          "type": "string"
        }
      ],
      "stateMutability": "view",
      "type": "function"
    },
    {
      "inputs": [],
      "name": "totalSupply",
      "outputs": [
        {
          "internalType": "uint256",
          "name": "",
          "type": "uint256"
        }
      ],
      "stateMutability": "view",
      "type": "function"
    },
    {
      "inputs": [
        {
          "internalType": "address",
          "name": "to",
          "type": "address"
        },
        {
          "internalType": "uint256",
          "name": "value",
          "type": "uint256"
        }
      ],
      "name": "transfer",
      "outputs": [
        {
          "internalType": "bool",
          "name": "",
          "type": "bool"
        }
      ],
      "stateMutability": "nonpayable",
      "type": "function"
    },
    {
      "inputs": [
        {
          "internalType": "address",
          "name": "from",
          "type": "address"
        },
        {
          "internalType": "address",
          "name": "to",
          "type": "address"
        },
        {
          "internalType": "uint256",
          "name": "value",
          "type": "uint256"
        }
      ],
      "name": "transferFrom",
      "outputs": [
        {
          "internalType": "bool",
          "name": "",
          "type": "bool"
        }
      ],
      "stateMutability": "nonpayable",
      "type": "function"
    },
    {
      "inputs": [
        {
          "internalType": "address",
          "name": "newOwner",
          "type": "address"
        }
      ],
      "name": "transferOwnership",
      "outputs": [],
      "stateMutability": "nonpayable",
      "type": "function"
    },
    {
      "inputs": [
        {
          "internalType": "uint256",
          "name": "_id",
          "type": "uint256"
        }
      ],
      "name": "verifyAndReward",
      "outputs": [],
      "stateMutability": "nonpayable",
      "type": "function"
    }
  ],
  "bytecode": "0x608060405234801561001057600080fd5b5060405161254338038061254383398181016040528101906100329190610272565b806040518060400160405280600a81526020017f477265656e546f6b656e000000000000000000000000000000000000000000008152506040518060400160405280600281526020017f475400000000000000000000000000000000000000000000000000000000000081525081600390816100ae91906104ef565b5080600490816100be91906104ef565b505050600073ffffffffffffffffffffffffffffffffffffffff168173ffffffffffffffffffffffffffffffffffffffff16036101335760006040517f1e4fbdf700000000000000000000000000000000000000000000000000000000815260040161012a91906105d0565b60405180910390fd5b6101428161014960201b60201c565b50506105eb565b6000600560009054906101000a900473ffffffffffffffffffffffffffffffffffffffff16905081600560006101000a81548173ffffffffffffffffffffffffffffffffffffffff021916908373ffffffffffffffffffffffffffffffffffffffff1602179055508173ffffffffffffffffffffffffffffffffffffffff168173ffffffffffffffffffffffffffffffffffffffff167f8be0079c531659141344cd1fd0a4f28419497f9722a3daafe3b4186f6b6457e060405160405180910390a35050565b600080fd5b600073ffffffffffffffffffffffffffffffffffffffff82169050919050565b600061023f82610214565b9050919050565b61024f81610234565b811461025a57600080fd5b50565b60008151905061026c81610246565b92915050565b6000602082840312156102885761028761020f565b5b60006102968482850161025d565b91505092915050565b600081519050919050565b7f4e487b7100000000000000000000000000000000000000000000000000000000600052604160045260246000fd5b7f4e487b7100000000000000000000000000000000000000000000000000000000600052602260045260246000fd5b6000600282049050600182168061032057607f821691505b602082108103610333576103326102d9565b5b50919050565b60008190508160005260206000209050919050565b60006020601f8301049050919050565b600082821b905092915050565b60006008830261039b7fffffffffffffffffffffffffffffffffffffffffffffffffffffffffffffffff8261035e565b6103a5868361035e565b95508019841693508086168417925050509392505050565b6000819050919050565b6000819050919050565b60006103ec6103e76103e2846103bd565b6103c7565b6103bd565b9050919050565b6000819050919050565b610406836103d1565b61041a610412826103f3565b84845461036b565b825550505050565b600090565b61042f610422565b61043a8184846103fd565b505050565b5b8181101561045e57610453600082610427565b600181019050610440565b5050565b601f8211156104a35761047481610339565b61047d8461034e565b8101602085101561048c578190505b6104a06104988561034e565b83018261043f565b50505b505050565b600082821c905092915050565b60006104c6600019846008026104a8565b1980831691505092915050565b60006104df83836104b5565b9150826002028217905092915050565b6104f88261029f565b67ffffffffffffffff811115610511576105106102aa565b5b61051b8254610308565b610526828285610462565b600060209050601f8311600181146105595760008415610547578287015190505b61055185826104d3565b8655506105b9565b601f19841661056786610339565b60005b8281101561058f5784890151825560018201915060208501945060208101905061056a565b868310156105ac57848901516105a8601f8916826104b5565b8355505b6001600288020188555050505b505050505050565b6105ca81610234565b82525050565b60006020820190506105e560008301846105c1565b92915050565b611f49806105fa6000396000f3fe608060405234801561001057600080fd5b50600436106101005760003560e01c8063715018a611610097578063ad73349e11610066578063ad73349e1461029f578063b85d8261146102d3578063dd62ed3e146102ef578063f2fde38b1461031f57610100565b8063715018a6146102295780638da5cb5b1461023357806395d89b4114610251578063a9059cbb1461026f57610100565b8063313ce567116100d3578063313ce567146101a157806343ff7efd146101bf5780636ec02be9146101db57806370a08231146101f957610100565b806306fdde0314610105578063095ea7b31461012357806318160ddd1461015357806323b872dd14610171575b600080fd5b61010d61033b565b60405161011a9190611488565b60405180910390f35b61013d60048036038101906101389190611552565b6103cd565b60405161014a91906115ad565b60405180910390f35b61015b6103f0565b60405161016891906115d7565b60405180910390f35b61018b600480360381019061018691906115f2565b6103fa565b60405161019891906115ad565b60405180910390f35b6101a9610429565b6040516101b69190611661565b60405180910390f35b6101d960048036038101906101d4919061167c565b610432565b005b6101e361065a565b6040516101f091906115d7565b60405180910390f35b610213600480360381019061020e91906116a9565b610660565b60405161022091906115d7565b60405180910390f35b6102316106a8565b005b61023b6106bc565b60405161024891906116e5565b60405180910390f35b6102596106e6565b6040516102669190611488565b60405180910390f35b61028960048036038101906102849190611552565b610778565b60405161029691906115ad565b60405180910390f35b6102b960048036038101906102b4919061167c565b61079b565b6040516102ca959493929190611700565b60405180910390f35b6102ed60048036038101906102e89190611896565b61090e565b005b6103096004803603810190610304919061190e565b610a6f565b60405161031691906115d7565b60405180910390f35b610339600480360381019061033491906116a9565b610af6565b005b60606003805461034a9061197d565b80601f01602080910402602001604051908101604052809291908181526020018280546103769061197d565b80156103c35780601f10610398576101008083540402835291602001916103c3565b820191906000526020600020905b8154815290600101906020018083116103a657829003601f168201915b5050505050905090565b6000806103d8610b7c565b90506103e5818585610b84565b600191505092915050565b6000600254905090565b600080610405610b7c565b9050610412858285610b96565b61041d858585610c2b565b60019150509392505050565b60006012905090565b61043a610d1f565b600754811061047e576040517f08c379a0000000000000000000000000000000000000000000000000000000008152600401610475906119fa565b60405180910390fd5b60006006600083815260200190815260200160002090508060040160009054906101000a900460ff16156104e7576040517f08c379a00000000000000000000000000000000000000000000000000000000081526004016104de90611a66565b60405180910390fd5b600061057e8260010180546104fb9061197d565b80601f01602080910402602001604051908101604052809291908181526020018280546105279061197d565b80156105745780601f1061054957610100808354040283529160200191610574565b820191906000526020600020905b81548152906001019060200180831161055757829003601f168201915b5050505050610da6565b90506105c18260000160009054906101000a900473ffffffffffffffffffffffffffffffffffffffff16670de0b6b3a7640000836105bc9190611ab5565b610e99565b60018260040160006101000a81548160ff0219169083151502179055508160000160009054906101000a900473ffffffffffffffffffffffffffffffffffffffff1673ffffffffffffffffffffffffffffffffffffffff167fdf92894dc4675a7333caa5903b69cf5d8e8ec0d3f361c88207b6688e525703bb828460010160405161064d929190611b90565b60405180910390a2505050565b60075481565b60008060008373ffffffffffffffffffffffffffffffffffffffff1673ffffffffffffffffffffffffffffffffffffffff168152602001908152602001600020549050919050565b6106b0610d1f565b6106ba6000610f1b565b565b6000600560009054906101000a900473ffffffffffffffffffffffffffffffffffffffff16905090565b6060600480546106f59061197d565b80601f01602080910402602001604051908101604052809291908181526020018280546107219061197d565b801561076e5780601f106107435761010080835404028352916020019161076e565b820191906000526020600020905b81548152906001019060200180831161075157829003601f168201915b5050505050905090565b600080610783610b7c565b9050610790818585610c2b565b600191505092915050565b60066020528060005260406000206000915090508060000160009054906101000a900473ffffffffffffffffffffffffffffffffffffffff16908060010180546107e49061197d565b80601f01602080910402602001604051908101604052809291908181526020018280546108109061197d565b801561085d5780601f106108325761010080835404028352916020019161085d565b820191906000526020600020905b81548152906001019060200180831161084057829003601f168201915b5050505050908060020180546108729061197d565b80601f016020809104026020016040519081016040528092919081815260200182805461089e9061197d565b80156108eb5780601f106108c0576101008083540402835291602001916108eb565b820191906000526020600020905b8154815290600101906020018083116108ce57829003601f168201915b5050505050908060030154908060040160009054906101000a900460ff16905085565b6040518060a001604052803373ffffffffffffffffffffffffffffffffffffffff1681526020018381526020018281526020014281526020016000151581525060066000600754815260200190815260200160002060008201518160000160006101000a81548173ffffffffffffffffffffffffffffffffffffffff021916908373ffffffffffffffffffffffffffffffffffffffff16021790555060208201518160010190816109bf9190611d57565b5060408201518160020190816109d59190611d57565b506060820151816003015560808201518160040160006101000a81548160ff0219169083151502179055509050503373ffffffffffffffffffffffffffffffffffffffff167fea2aa78e0054b90a1e6fc7bb2c5a73ded60a6052f17060303b87849038f2915c8383604051610a4b929190611e29565b60405180910390a260076000815480929190610a6690611e60565b91905055505050565b6000600160008473ffffffffffffffffffffffffffffffffffffffff1673ffffffffffffffffffffffffffffffffffffffff16815260200190815260200160002060008373ffffffffffffffffffffffffffffffffffffffff1673ffffffffffffffffffffffffffffffffffffffff16815260200190815260200160002054905092915050565b610afe610d1f565b600073ffffffffffffffffffffffffffffffffffffffff168173ffffffffffffffffffffffffffffffffffffffff1603610b705760006040517f1e4fbdf7000000000000000000000000000000000000000000000000000000008152600401610b6791906116e5565b60405180910390fd5b610b7981610f1b565b50565b600033905090565b610b918383836001610fe1565b505050565b6000610ba28484610a6f565b90507fffffffffffffffffffffffffffffffffffffffffffffffffffffffffffffffff811015610c255781811015610c15578281836040517ffb8f41b2000000000000000000000000000000000000000000000000000000008152600401610c0c93929190611ea8565b60405180910390fd5b610c2484848484036000610fe1565b5b50505050565b600073ffffffffffffffffffffffffffffffffffffffff168373ffffffffffffffffffffffffffffffffffffffff1603610c9d5760006040517f96c6fd1e000000000000000000000000000000000000000000000000000000008152600401610c9491906116e5565b60405180910390fd5b600073ffffffffffffffffffffffffffffffffffffffff168273ffffffffffffffffffffffffffffffffffffffff1603610d0f5760006040517fec442f05000000000000000000000000000000000000000000000000000000008152600401610d0691906116e5565b60405180910390fd5b610d1a8383836111b8565b505050565b610d27610b7c565b73ffffffffffffffffffffffffffffffffffffffff16610d456106bc565b73ffffffffffffffffffffffffffffffffffffffff1614610da457610d68610b7c565b6040517f118cdaa7000000000000000000000000000000000000000000000000000000008152600401610d9b91906116e5565b60405180910390fd5b565b6000610de7826040518060400160405280600681526020017f6c6170746f7000000000000000000000000000000000000000000000000000008152506113dd565b15610df55760149050610e94565b610e34826040518060400160405280600581526020017f70686f6e650000000000000000000000000000000000000000000000000000008152506113dd565b15610e4257600a9050610e94565b610e81826040518060400160405280600881526020017f636f6d70757465720000000000000000000000000000000000000000000000008152506113dd565b15610e8f5760149050610e94565b600590505b919050565b600073ffffffffffffffffffffffffffffffffffffffff168273ffffffffffffffffffffffffffffffffffffffff1603610f0b5760006040517fec442f05000000000000000000000000000000000000000000000000000000008152600401610f0291906116e5565b60405180910390fd5b610f17600083836111b8565b5050565b6000600560009054906101000a900473ffffffffffffffffffffffffffffffffffffffff16905081600560006101000a81548173ffffffffffffffffffffffffffffffffffffffff021916908373ffffffffffffffffffffffffffffffffffffffff1602179055508173ffffffffffffffffffffffffffffffffffffffff168173ffffffffffffffffffffffffffffffffffffffff167f8be0079c531659141344cd1fd0a4f28419497f9722a3daafe3b4186f6b6457e060405160405180910390a35050565b600073ffffffffffffffffffffffffffffffffffffffff168473ffffffffffffffffffffffffffffffffffffffff16036110535760006040517fe602df0500000000000000000000000000000000000000000000000000000000815260040161104a91906116e5565b60405180910390fd5b600073ffffffffffffffffffffffffffffffffffffffff168373ffffffffffffffffffffffffffffffffffffffff16036110c55760006040517f94280d620000000000000000000000000000000000000000000000000000000081526004016110bc91906116e5565b60405180910390fd5b81600160008673ffffffffffffffffffffffffffffffffffffffff1673ffffffffffffffffffffffffffffffffffffffff16815260200190815260200160002060008573ffffffffffffffffffffffffffffffffffffffff1673ffffffffffffffffffffffffffffffffffffffff1681526020019081526020016000208190555080156111b2578273ffffffffffffffffffffffffffffffffffffffff168473ffffffffffffffffffffffffffffffffffffffff167f8c5be1e5ebec7d5bd14f71427d1e84f3dd0314c0f7b2291e5b200ac8c7c3b925846040516111a991906115d7565b60405180910390a35b50505050565b600073ffffffffffffffffffffffffffffffffffffffff168373ffffffffffffffffffffffffffffffffffffffff160361120a5780600260008282546111fe9190611edf565b925050819055506112dd565b60008060008573ffffffffffffffffffffffffffffffffffffffff1673ffffffffffffffffffffffffffffffffffffffff16815260200190815260200160002054905081811015611296578381836040517fe450d38c00000000000000000000000000000000000000000000000000000000815260040161128d93929190611ea8565b60405180910390fd5b8181036000808673ffffffffffffffffffffffffffffffffffffffff1673ffffffffffffffffffffffffffffffffffffffff16815260200190815260200160002081905550505b600073ffffffffffffffffffffffffffffffffffffffff168273ffffffffffffffffffffffffffffffffffffffff16036113265780600260008282540392505081905550611373565b806000808473ffffffffffffffffffffffffffffffffffffffff1673ffffffffffffffffffffffffffffffffffffffff168152602001908152602001600020600082825401925050819055505b8173ffffffffffffffffffffffffffffffffffffffff168373ffffffffffffffffffffffffffffffffffffffff167fddf252ad1be2c89b69c2b068fc378daa952ba7f163c4a11628f55a4df523b3ef836040516113d091906115d7565b60405180910390a3505050565b60008180519060200120838051906020012014905092915050565b600081519050919050565b600082825260208201905092915050565b60005b83811015611432578082015181840152602081019050611417565b60008484015250505050565b6000601f19601f8301169050919050565b600061145a826113f8565b6114648185611403565b9350611474818560208601611414565b61147d8161143e565b840191505092915050565b600060208201905081810360008301526114a2818461144f565b905092915050565b6000604051905090565b600080fd5b600080fd5b600073ffffffffffffffffffffffffffffffffffffffff82169050919050565b60006114e9826114be565b9050919050565b6114f9816114de565b811461150457600080fd5b50565b600081359050611516816114f0565b92915050565b6000819050919050565b61152f8161151c565b811461153a57600080fd5b50565b60008135905061154c81611526565b92915050565b60008060408385031215611569576115686114b4565b5b600061157785828601611507565b92505060206115888582860161153d565b9150509250929050565b60008115159050919050565b6115a781611592565b82525050565b60006020820190506115c2600083018461159e565b92915050565b6115d18161151c565b82525050565b60006020820190506115ec60008301846115c8565b92915050565b60008060006060848603121561160b5761160a6114b4565b5b600061161986828701611507565b935050602061162a86828701611507565b925050604061163b8682870161153d565b9150509250925092565b600060ff82169050919050565b61165b81611645565b82525050565b60006020820190506116766000830184611652565b92915050565b600060208284031215611692576116916114b4565b5b60006116a08482850161153d565b91505092915050565b6000602082840312156116bf576116be6114b4565b5b60006116cd84828501611507565b91505092915050565b6116df816114de565b82525050565b60006020820190506116fa60008301846116d6565b92915050565b600060a08201905061171560008301886116d6565b8181036020830152611727818761144f565b9050818103604083015261173b818661144f565b905061174a60608301856115c8565b611757608083018461159e565b9695505050505050565b600080fd5b600080fd5b7f4e487b7100000000000000000000000000000000000000000000000000000000600052604160045260246000fd5b6117a38261143e565b810181811067ffffffffffffffff821117156117c2576117c161176b565b5b80604052505050565b60006117d56114aa565b90506117e1828261179a565b919050565b600067ffffffffffffffff8211156118015761180061176b565b5b61180a8261143e565b9050602081019050919050565b82818337600083830152505050565b6000611839611834846117e6565b6117cb565b90508281526020810184848401111561185557611854611766565b5b611860848285611817565b509392505050565b600082601f83011261187d5761187c611761565b5b813561188d848260208601611826565b91505092915050565b600080604083850312156118ad576118ac6114b4565b5b600083013567ffffffffffffffff8111156118cb576118ca6114b9565b5b6118d785828601611868565b925050602083013567ffffffffffffffff8111156118f8576118f76114b9565b5b61190485828601611868565b9150509250929050565b60008060408385031215611925576119246114b4565b5b600061193385828601611507565b925050602061194485828601611507565b9150509250929050565b7f4e487b7100000000000000000000000000000000000000000000000000000000600052602260045260246000fd5b6000600282049050600182168061199557607f821691505b6020821081036119a8576119a761194e565b5b50919050565b7f496e76616c696420494400000000000000000000000000000000000000000000600082015250565b60006119e4600a83611403565b91506119ef826119ae565b602082019050919050565b60006020820190508181036000830152611a13816119d7565b9050919050565b7f416c726561647920566572696669656400000000000000000000000000000000600082015250565b6000611a50601083611403565b9150611a5b82611a1a565b602082019050919050565b60006020820190508181036000830152611a7f81611a43565b9050919050565b7f4e487b7100000000000000000000000000000000000000000000000000000000600052601160045260246000fd5b6000611ac08261151c565b9150611acb8361151c565b9250828202611ad98161151c565b91508282048414831517611af057611aef611a86565b5b5092915050565b60008190508160005260206000209050919050565b60008154611b198161197d565b611b238186611403565b94506001821660008114611b3e5760018114611b5457611b87565b60ff198316865281151560200286019350611b87565b611b5d85611af7565b60005b83811015611b7f57815481890152600182019150602081019050611b60565b808801955050505b50505092915050565b6000604082019050611ba560008301856115c8565b8181036020830152611bb78184611b0c565b90509392505050565b60006020601f8301049050919050565b600082821b905092915050565b600060088302611c0d7fffffffffffffffffffffffffffffffffffffffffffffffffffffffffffffffff82611bd0565b611c178683611bd0565b95508019841693508086168417925050509392505050565b6000819050919050565b6000611c54611c4f611c4a8461151c565b611c2f565b61151c565b9050919050565b6000819050919050565b611c6e83611c39565b611c82611c7a82611c5b565b848454611bdd565b825550505050565b600090565b611c97611c8a565b611ca2818484611c65565b505050565b5b81811015611cc657611cbb600082611c8f565b600181019050611ca8565b5050565b601f821115611d0b57611cdc81611af7565b611ce584611bc0565b81016020851015611cf4578190505b611d08611d0085611bc0565b830182611ca7565b50505b505050565b600082821c905092915050565b6000611d2e60001984600802611d10565b1980831691505092915050565b6000611d478383611d1d565b9150826002028217905092915050565b611d60826113f8565b67ffffffffffffffff811115611d7957611d7861176b565b5b611d83825461197d565b611d8e828285611cca565b600060209050601f831160018114611dc15760008415611daf578287015190505b611db98582611d3b565b865550611e21565b601f198416611dcf86611af7565b60005b82811015611df757848901518255600182019150602085019450602081019050611dd2565b86831015611e145784890151611e10601f891682611d1d565b8355505b6001600288020188555050505b505050505050565b60006040820190508181036000830152611e43818561144f565b90508181036020830152611e57818461144f565b90509392505050565b6000611e6b8261151c565b91507fffffffffffffffffffffffffffffffffffffffffffffffffffffffffffffffff8203611e9d57611e9c611a86565b5b600182019050919050565b6000606082019050611ebd60008301866116d6565b611eca60208301856115c8565b611ed760408301846115c8565b949350505050565b6000611eea8261151c565b9150611ef58361151c565b9250828201905080821115611f0d57611f0c611a86565b5b9291505056fea2646970667358221220e7f8dd17d795efc5388e03cf2de6286b9d560b023f4e6d21dad52433e088df4864736f6c634300081e0033",
  "linkReferences": {},
  "deployedLinkReferences": {}
}