{
  "_format": "hh-sol-artifact-1",
  "contractName": "GreenToken",
  "sourceName": "contracts/GreenToken.sol",
  "abi": [
    {
      "inputs": [
        {
          "internalType": "address",
          "name": "initialOwner",
          "type": "address"
        }
      ],
      "stateMutability": "nonpayable",
      "type": "constructor"
    },
    {
      "inputs": [
        {
          "internalType": "address",
          "name": "spender",
          "type": "address"
        },
        {
          "internalType": "uint256",
          "name": "allowance",
          "type": "uint256"
        },
        {
          "internalType": "uint256",
          "name": "needed",
          "type": "uint256"
        }
      ],
      "name": "ERC20InsufficientAllowance",
      "type": "error"
    },
    {
      "inputs": [
        {
          "internalType": "address",
          "name": "sender",
          "type": "address"
        },
        {
          "internalType": "uint256",
          "name": "balance",
          "type": "uint256"
        },
        {
          "internalType": "uint256",
          "name": "needed",
          "type": "uint256"
        }
      ],
      "name": "ERC20InsufficientBalance",
      "type": "error"
    },
    {
      "inputs": [
        {
          "internalType": "address",
          "name": "approver",
          "type": "address"
        }
      ],
      "name": "ERC20InvalidApprover",
      "type": "error"
    },
    {
      "inputs": [
        {
          "internalType": "address",
          "name": "receiver",
          "type": "address"
        }
      ],
      "name": "ERC20InvalidReceiver",
      "type": "error"
    },
    {
      "inputs": [
        {
          "internalType": "address",
          "name": "sender",
          "type": "address"
        }
      ],
      "name": "ERC20InvalidSender",
      "type": "error"
    },
    {
      "inputs": [
        {
          "internalType": "address",
          "name": "spender",
          "type": "address"
        }
      ],
      "name": "ERC20InvalidSpender",
      "type": "error"
    },
    {
      "inputs": [
        {
          "internalType": "address",
          "name": "owner",
          "type": "address"
        }
      ],
      "name": "OwnableInvalidOwner",
      "type": "error"
    },
    {
      "inputs": [
        {
          "internalType": "address",
          "name": "account",
          "type": "address"
        }
      ],
      "name": "OwnableUnauthorizedAccount",
      "type": "error"
    },
    {
      "anonymous": false,
      "inputs": [
        {
          "indexed": true,
          "internalType": "address",
          "name": "owner",
          "type": "address"
        },
        {
          "indexed": true,
          "internalType": "address",
          "name": "spender",
          "type": "address"
        },
        {
          "indexed": false,
          "internalType": "uint256",
          "name": "value",
          "type": "uint256"
        }
      ],
      "name": "Approval",
      "type": "event"
    },
    {
      "anonymous": false,
      "inputs": [
        {
          "indexed": true,
          "internalType": "address",
          "name": "user",
          "type": "address"
        },
        {
          "indexed": false,
          "internalType": "string",
          "name": "deviceType",
          "type": "string"
        },
        {
          "indexed": false,
          "internalType": "string",
          "name": "ipfsCID",
          "type": "string"
        }
      ],
      "name": "DeviceSubmitted",
      "type": "event"
    },
    {
      "anonymous": false,
      "inputs": [
        {
          "indexed": true,
          "internalType": "address",
          "name": "previousOwner",
          "type": "address"
        },
        {
          "indexed": true,
          "internalType": "address",
          "name": "newOwner",
          "type": "address"
        }
      ],
      "name": "OwnershipTransferred",
      "type": "event"
    },
    {
      "anonymous": false,
      "inputs": [
        {
          "indexed": true,
          "internalType": "address",
          "name": "user",
          "type": "address"
        },
        {
          "indexed": false,
          "internalType": "uint256",
          "name": "amount",
          "type": "uint256"
        },
        {
          "indexed": false,
          "internalType": "string",
          "name": "deviceType",
          "type": "string"
        }
      ],
      "name": "TokenMinted",
      "type": "event"
    },
    {
      "anonymous": false,
      "inputs": [
        {
          "indexed": true,
          "internalType": "address",
          "name": "from",
          "type": "address"
        },
        {
          "indexed": true,
          "internalType": "address",
          "name": "to",
          "type": "address"
        },
        {
          "indexed": false,
          "internalType": "uint256",
          "name": "value",
          "type": "uint256"
        }
      ],
      "name": "Transfer",
      "type": "event"
    },
    {
      "inputs": [
        {
          "internalType": "string",
          "name": "_deviceType",
          "type": "string"
        },
        {
          "internalType": "string",
          "name": "_ipfsCID",
          "type": "string"
        }
      ],
      "name": "addDevice",
      "outputs": [],
      "stateMutability": "nonpayable",
      "type": "function"
    },
    {
      "inputs": [
        {
          "internalType": "address",
          "name": "owner",
          "type": "address"
        },
        {
          "internalType": "address",
          "name": "spender",
          "type": "address"
        }
      ],
      "name": "allowance",
      "outputs": [
        {
          "internalType": "uint256",
          "name": "",
          "type": "uint256"
        }
      ],
      "stateMutability": "view",
      "type": "function"
    },
    {
      "inputs": [
        {
          "internalType": "address",
          "name": "spender",
          "type": "address"
        },
        {
          "internalType": "uint256",
          "name": "value",
          "type": "uint256"
        }
      ],
      "name": "approve",
      "outputs": [
        {
          "internalType": "bool",
          "name": "",
          "type": "bool"
        }
      ],
      "stateMutability": "nonpayable",
      "type": "function"
    },
    {
      "inputs": [
        {
          "internalType": "address",
          "name": "account",
          "type": "address"
        }
      ],
      "name": "balanceOf",
      "outputs": [
        {
          "internalType": "uint256",
          "name": "",
          "type": "uint256"
        }
      ],
      "stateMutability": "view",
      "type": "function"
    },
    {
      "inputs": [],
      "name": "decimals",
      "outputs": [
        {
          "internalType": "uint8",
          "name": "",
          "type": "uint8"
        }
      ],
      "stateMutability": "view",
      "type": "function"
    },
    {
      "inputs": [
        {
          "internalType": "uint256",
          "name": "",
          "type": "uint256"
        }
      ],
      "name": "devices",
      "outputs": [
        {
          "internalType": "address",
          "name": "user",
          "type": "address"
        },
        {
          "internalType": "string",
          "name": "deviceType",
          "type": "string"
        },
        {
          "internalType": "string",
          "name": "ipfsCID",
          "type": "string"
        },
        {
          "internalType": "uint256",
          "name": "timestamp",
          "type": "uint256"
        },
        {
          "internalType": "bool",
          "name": "verified",
          "type": "bool"
        }
      ],
      "stateMutability": "view",
      "type": "function"
    },
    {
      "inputs": [],
      "name": "getAllSubmissions",
      "outputs": [
        {
          "components": [
            {
              "internalType": "address",
              "name": "user",
              "type": "address"
            },
            {
              "internalType": "string",
              "name": "deviceType",
              "type": "string"
            },
            {
              "internalType": "string",
              "name": "ipfsCID",
              "type": "string"
            },
            {
              "internalType": "uint256",
              "name": "timestamp",
              "type": "uint256"
            },
            {
              "internalType": "bool",
              "name": "verified",
              "type": "bool"
            }
          ],
          "internalType": "struct GreenToken.DeviceSubmission[]",
          "name": "",
          "type": "tuple[]"
        }
      ],
      "stateMutability": "view",
      "type": "function"
    },
    {
      "inputs": [],
      "name": "name",
      "outputs": [
        {
          "internalType": "string",
          "name": "",
          "type": "string"
        }
      ],
      "stateMutability": "view",
      "type": "function"
    },
    {
      "inputs": [],
      "name": "owner",
      "outputs": [
        {
          "internalType": "address",
          "name": "",
          "type": "address"
        }
      ],
      "stateMutability": "view",
      "type": "function"
    },
    {
      "inputs": [],
      "name": "renounceOwnership",
      "outputs": [],
      "stateMutability": "nonpayable",
      "type": "function"
    },
    {
      "inputs": [],
      "name": "submissionCount",
      "outputs": [
        {
          "internalType": "uint256",
          "name": "",
          "type": "uint256"
        }
      ],
      "stateMutability": "view",
      "type": "function"
    },
    {
      "inputs": [
        {
          "internalType": "uint256",
          "name": "",
          "type": "uint256"
        }
      ],
      "name": "submissions",
      "outputs": [
        {
          "internalType": "address",
          "name": "user",
          "type": "address"
        },
        {
          "internalType": "string",
          "name": "deviceType",
          "type": "string"
        },
        {
          "internalType": "string",
          "name": "ipfsCID",
          "type": "string"
        },
        {
          "internalType": "uint256",
          "name": "timestamp",
          "type": "uint256"
        },
        {
          "internalType": "bool",
          "name": "verified",
          "type": "bool"
        }
      ],
      "stateMutability": "view",
      "type": "function"
    },
    {
      "inputs": [],
      "name": "symbol",
      "outputs": [
        {
          "internalType": "string",
          "name": "",
          "type": "string"
        }
      ],
      "stateMutability": "view",
      "type": "function"
    },
    {
      "inputs": [],
      "name": "totalSupply",
      "outputs": [
        {
          "internalType": "uint256",
          "name": "",
          "type": "uint256"
        }
      ],
      "stateMutability": "view",
      "type": "function"
    },
    {
      "inputs": [
        {
          "internalType": "address",
          "name": "to",
          "type": "address"
        },
        {
          "internalType": "uint256",
          "name": "value",
          "type": "uint256"
        }
      ],
      "name": "transfer",
      "outputs": [
        {
          "internalType": "bool",
          "name": "",
          "type": "bool"
        }
      ],
      "stateMutability": "nonpayable",
      "type": "function"
    },
    {
      "inputs": [
        {
          "internalType": "address",
          "name": "from",
          "type": "address"
        },
        {
          "internalType": "address",
          "name": "to",
          "type": "address"
        },
        {
          "internalType": "uint256",
          "name": "value",
          "type": "uint256"
        }
      ],
      "name": "transferFrom",
      "outputs": [
        {
          "internalType": "bool",
          "name": "",
          "type": "bool"
        }
      ],
      "stateMutability": "nonpayable",
      "type": "function"
    },
    {
      "inputs": [
        {
          "internalType": "address",
          "name": "newOwner",
          "type": "address"
        }
      ],
      "name": "transferOwnership",
      "outputs": [],
      "stateMutability": "nonpayable",
      "type": "function"
    },
    {
      "inputs": [
        {
          "internalType": "uint256",
          "name": "_id",
          "type": "uint256"
        }
      ],
      "name": "verifyAndReward",
      "outputs": [],
      "stateMutability": "nonpayable",
      "type": "function"
    }
  ],
  "bytecode": "0x608060405234801561001057600080fd5b50604051612bd5380380612bd583398181016040528101906100329190610272565b806040518060400160405280600a81526020017f477265656e546f6b656e000000000000000000000000000000000000000000008152506040518060400160405280600281526020017f475400000000000000000000000000000000000000000000000000000000000081525081600390816100ae91906104ef565b5080600490816100be91906104ef565b505050600073ffffffffffffffffffffffffffffffffffffffff168173ffffffffffffffffffffffffffffffffffffffff16036101335760006040517f1e4fbdf700000000000000000000000000000000000000000000000000000000815260040161012a91906105d0565b60405180910390fd5b6101428161014960201b60201c565b50506105eb565b6000600560009054906101000a900473ffffffffffffffffffffffffffffffffffffffff16905081600560006101000a81548173ffffffffffffffffffffffffffffffffffffffff021916908373ffffffffffffffffffffffffffffffffffffffff1602179055508173ffffffffffffffffffffffffffffffffffffffff168173ffffffffffffffffffffffffffffffffffffffff167f8be0079c531659141344cd1fd0a4f28419497f9722a3daafe3b4186f6b6457e060405160405180910390a35050565b600080fd5b600073ffffffffffffffffffffffffffffffffffffffff82169050919050565b600061023f82610214565b9050919050565b61024f81610234565b811461025a57600080fd5b50565b60008151905061026c81610246565b92915050565b6000602082840312156102885761028761020f565b5b60006102968482850161025d565b91505092915050565b600081519050919050565b7f4e487b7100000000000000000000000000000000000000000000000000000000600052604160045260246000fd5b7f4e487b7100000000000000000000000000000000000000000000000000000000600052602260045260246000fd5b6000600282049050600182168061032057607f821691505b602082108103610333576103326102d9565b5b50919050565b60008190508160005260206000209050919050565b60006020601f8301049050919050565b600082821b905092915050565b60006008830261039b7fffffffffffffffffffffffffffffffffffffffffffffffffffffffffffffffff8261035e565b6103a5868361035e565b95508019841693508086168417925050509392505050565b6000819050919050565b6000819050919050565b60006103ec6103e76103e2846103bd565b6103c7565b6103bd565b9050919050565b6000819050919050565b610406836103d1565b61041a610412826103f3565b84845461036b565b825550505050565b600090565b61042f610422565b61043a8184846103fd565b505050565b5b8181101561045e57610453600082610427565b600181019050610440565b5050565b601f8211156104a35761047481610339565b61047d8461034e565b8101602085101561048c578190505b6104a06104988561034e565b83018261043f565b50505b505050565b600082821c905092915050565b60006104c6600019846008026104a8565b1980831691505092915050565b60006104df83836104b5565b9150826002028217905092915050565b6104f88261029f565b67ffffffffffffffff811115610511576105106102aa565b5b61051b8254610308565b610526828285610462565b600060209050601f8311600181146105595760008415610547578287015190505b61055185826104d3565b8655506105b9565b601f19841661056786610339565b60005b8281101561058f5784890151825560018201915060208501945060208101905061056a565b868310156105ac57848901516105a8601f8916826104b5565b8355505b6001600288020188555050505b505050505050565b6105ca81610234565b82525050565b60006020820190506105e560008301846105c1565b92915050565b6125db806105fa6000396000f3fe608060405234801561001057600080fd5b50600436106101165760003560e01c806370a08231116100a2578063a9059cbb11610071578063a9059cbb146102d7578063ad73349e14610307578063b85d82611461033b578063dd62ed3e14610357578063f2fde38b1461038757610116565b806370a0823114610261578063715018a6146102915780638da5cb5b1461029b57806395d89b41146102b957610116565b806323b872dd116100e957806323b872dd146101bb578063313ce567146101eb57806343ff7efd1461020957806362bd983a146102255780636ec02be91461024357610116565b806306fdde031461011b578063095ea7b31461013957806310ff8e311461016957806318160ddd1461019d575b600080fd5b6101236103a3565b6040516101309190611913565b60405180910390f35b610153600480360381019061014e91906119dd565b610435565b6040516101609190611a38565b60405180910390f35b610183600480360381019061017e9190611a53565b610458565b604051610194959493929190611a9e565b60405180910390f35b6101a56105db565b6040516101b29190611aff565b60405180910390f35b6101d560048036038101906101d09190611b1a565b6105e5565b6040516101e29190611a38565b60405180910390f35b6101f3610614565b6040516102009190611b89565b60405180910390f35b610223600480360381019061021e9190611a53565b61061d565b005b61022d610845565b60405161023a9190611d5a565b60405180910390f35b61024b610a9e565b6040516102589190611aff565b60405180910390f35b61027b60048036038101906102769190611d7c565b610aa4565b6040516102889190611aff565b60405180910390f35b610299610aec565b005b6102a3610b00565b6040516102b09190611da9565b60405180910390f35b6102c1610b2a565b6040516102ce9190611913565b60405180910390f35b6102f160048036038101906102ec91906119dd565b610bbc565b6040516102fe9190611a38565b60405180910390f35b610321600480360381019061031c9190611a53565b610bdf565b604051610332959493929190611a9e565b60405180910390f35b61035560048036038101906103509190611ef9565b610d52565b005b610371600480360381019061036c9190611f71565b610eb3565b60405161037e9190611aff565b60405180910390f35b6103a1600480360381019061039c9190611d7c565b610f3a565b005b6060600380546103b290611fe0565b80601f01602080910402602001604051908101604052809291908181526020018280546103de90611fe0565b801561042b5780601f106104005761010080835404028352916020019161042b565b820191906000526020600020905b81548152906001019060200180831161040e57829003601f168201915b5050505050905090565b600080610440610fc0565b905061044d818585610fc8565b600191505092915050565b6006818154811061046857600080fd5b90600052602060002090600502016000915090508060000160009054906101000a900473ffffffffffffffffffffffffffffffffffffffff16908060010180546104b190611fe0565b80601f01602080910402602001604051908101604052809291908181526020018280546104dd90611fe0565b801561052a5780601f106104ff5761010080835404028352916020019161052a565b820191906000526020600020905b81548152906001019060200180831161050d57829003601f168201915b50505050509080600201805461053f90611fe0565b80601f016020809104026020016040519081016040528092919081815260200182805461056b90611fe0565b80156105b85780601f1061058d576101008083540402835291602001916105b8565b820191906000526020600020905b81548152906001019060200180831161059b57829003601f168201915b5050505050908060030154908060040160009054906101000a900460ff16905085565b6000600254905090565b6000806105f0610fc0565b90506105fd858285610fda565b61060885858561106f565b60019150509392505050565b60006012905090565b610625611163565b6008548110610669576040517f08c379a00000000000000000000000000000000000000000000000000000000081526004016106609061205d565b60405180910390fd5b60006007600083815260200190815260200160002090508060040160009054906101000a900460ff16156106d2576040517f08c379a00000000000000000000000000000000000000000000000000000000081526004016106c9906120c9565b60405180910390fd5b60006107698260010180546106e690611fe0565b80601f016020809104026020016040519081016040528092919081815260200182805461071290611fe0565b801561075f5780601f106107345761010080835404028352916020019161075f565b820191906000526020600020905b81548152906001019060200180831161074257829003601f168201915b50505050506111ea565b90506107ac8260000160009054906101000a900473ffffffffffffffffffffffffffffffffffffffff16670de0b6b3a7640000836107a79190612118565b6112dd565b60018260040160006101000a81548160ff0219169083151502179055508160000160009054906101000a900473ffffffffffffffffffffffffffffffffffffffff1673ffffffffffffffffffffffffffffffffffffffff167fdf92894dc4675a7333caa5903b69cf5d8e8ec0d3f361c88207b6688e525703bb82846001016040516108389291906121f3565b60405180910390a2505050565b6060600060085467ffffffffffffffff81111561086557610864611dce565b5b60405190808252806020026020018201604052801561089e57816020015b61088b61183c565b8152602001906001900390816108835790505b50905060005b600854811015610a9657600760008281526020019081526020016000206040518060a00160405290816000820160009054906101000a900473ffffffffffffffffffffffffffffffffffffffff1673ffffffffffffffffffffffffffffffffffffffff1673ffffffffffffffffffffffffffffffffffffffff16815260200160018201805461093290611fe0565b80601f016020809104026020016040519081016040528092919081815260200182805461095e90611fe0565b80156109ab5780601f10610980576101008083540402835291602001916109ab565b820191906000526020600020905b81548152906001019060200180831161098e57829003601f168201915b505050505081526020016002820180546109c490611fe0565b80601f01602080910402602001604051908101604052809291908181526020018280546109f090611fe0565b8015610a3d5780601f10610a1257610100808354040283529160200191610a3d565b820191906000526020600020905b815481529060010190602001808311610a2057829003601f168201915b50505050508152602001600382015481526020016004820160009054906101000a900460ff161515151581525050828281518110610a7e57610a7d612223565b5b602002602001018190525080806001019150506108a4565b508091505090565b60085481565b60008060008373ffffffffffffffffffffffffffffffffffffffff1673ffffffffffffffffffffffffffffffffffffffff168152602001908152602001600020549050919050565b610af4611163565b610afe600061135f565b565b6000600560009054906101000a900473ffffffffffffffffffffffffffffffffffffffff16905090565b606060048054610b3990611fe0565b80601f0160208091040260200160405190810160405280929190818152602001828054610b6590611fe0565b8015610bb25780601f10610b8757610100808354040283529160200191610bb2565b820191906000526020600020905b815481529060010190602001808311610b9557829003601f168201915b5050505050905090565b600080610bc7610fc0565b9050610bd481858561106f565b600191505092915050565b60076020528060005260406000206000915090508060000160009054906101000a900473ffffffffffffffffffffffffffffffffffffffff1690806001018054610c2890611fe0565b80601f0160208091040260200160405190810160405280929190818152602001828054610c5490611fe0565b8015610ca15780601f10610c7657610100808354040283529160200191610ca1565b820191906000526020600020905b815481529060010190602001808311610c8457829003601f168201915b505050505090806002018054610cb690611fe0565b80601f0160208091040260200160405190810160405280929190818152602001828054610ce290611fe0565b8015610d2f5780601f10610d0457610100808354040283529160200191610d2f565b820191906000526020600020905b815481529060010190602001808311610d1257829003601f168201915b5050505050908060030154908060040160009054906101000a900460ff16905085565b6040518060a001604052803373ffffffffffffffffffffffffffffffffffffffff1681526020018381526020018281526020014281526020016000151581525060076000600854815260200190815260200160002060008201518160000160006101000a81548173ffffffffffffffffffffffffffffffffffffffff021916908373ffffffffffffffffffffffffffffffffffffffff1602179055506020820151816001019081610e0391906123e9565b506040820151816002019081610e1991906123e9565b506060820151816003015560808201518160040160006101000a81548160ff0219169083151502179055509050503373ffffffffffffffffffffffffffffffffffffffff167fea2aa78e0054b90a1e6fc7bb2c5a73ded60a6052f17060303b87849038f2915c8383604051610e8f9291906124bb565b60405180910390a260086000815480929190610eaa906124f2565b91905055505050565b6000600160008473ffffffffffffffffffffffffffffffffffffffff1673ffffffffffffffffffffffffffffffffffffffff16815260200190815260200160002060008373ffffffffffffffffffffffffffffffffffffffff1673ffffffffffffffffffffffffffffffffffffffff16815260200190815260200160002054905092915050565b610f42611163565b600073ffffffffffffffffffffffffffffffffffffffff168173ffffffffffffffffffffffffffffffffffffffff1603610fb45760006040517f1e4fbdf7000000000000000000000000000000000000000000000000000000008152600401610fab9190611da9565b60405180910390fd5b610fbd8161135f565b50565b600033905090565b610fd58383836001611425565b505050565b6000610fe68484610eb3565b90507fffffffffffffffffffffffffffffffffffffffffffffffffffffffffffffffff8110156110695781811015611059578281836040517ffb8f41b20000000000000000000000000000000000000000000000000000000081526004016110509392919061253a565b60405180910390fd5b61106884848484036000611425565b5b50505050565b600073ffffffffffffffffffffffffffffffffffffffff168373ffffffffffffffffffffffffffffffffffffffff16036110e15760006040517f96c6fd1e0000000000000000000000000000000000000000000000000000000081526004016110d89190611da9565b60405180910390fd5b600073ffffffffffffffffffffffffffffffffffffffff168273ffffffffffffffffffffffffffffffffffffffff16036111535760006040517fec442f0500000000000000000000000000000000000000000000000000000000815260040161114a9190611da9565b60405180910390fd5b61115e8383836115fc565b505050565b61116b610fc0565b73ffffffffffffffffffffffffffffffffffffffff16611189610b00565b73ffffffffffffffffffffffffffffffffffffffff16146111e8576111ac610fc0565b6040517f118cdaa70000000000000000000000000000000000000000000000000000000081526004016111df9190611da9565b60405180910390fd5b565b600061122b826040518060400160405280600681526020017f6c6170746f700000000000000000000000000000000000000000000000000000815250611821565b1561123957601490506112d8565b611278826040518060400160405280600581526020017f70686f6e65000000000000000000000000000000000000000000000000000000815250611821565b1561128657600a90506112d8565b6112c5826040518060400160405280600881526020017f636f6d7075746572000000000000000000000000000000000000000000000000815250611821565b156112d357601490506112d8565b600590505b919050565b600073ffffffffffffffffffffffffffffffffffffffff168273ffffffffffffffffffffffffffffffffffffffff160361134f5760006040517fec442f050000000000000000000000000000000000000000000000000000000081526004016113469190611da9565b60405180910390fd5b61135b600083836115fc565b5050565b6000600560009054906101000a900473ffffffffffffffffffffffffffffffffffffffff16905081600560006101000a81548173ffffffffffffffffffffffffffffffffffffffff021916908373ffffffffffffffffffffffffffffffffffffffff1602179055508173ffffffffffffffffffffffffffffffffffffffff168173ffffffffffffffffffffffffffffffffffffffff167f8be0079c531659141344cd1fd0a4f28419497f9722a3daafe3b4186f6b6457e060405160405180910390a35050565b600073ffffffffffffffffffffffffffffffffffffffff168473ffffffffffffffffffffffffffffffffffffffff16036114975760006040517fe602df0500000000000000000000000000000000000000000000000000000000815260040161148e9190611da9565b60405180910390fd5b600073ffffffffffffffffffffffffffffffffffffffff168373ffffffffffffffffffffffffffffffffffffffff16036115095760006040517f94280d620000000000000000000000000000000000000000000000000000000081526004016115009190611da9565b60405180910390fd5b81600160008673ffffffffffffffffffffffffffffffffffffffff1673ffffffffffffffffffffffffffffffffffffffff16815260200190815260200160002060008573ffffffffffffffffffffffffffffffffffffffff1673ffffffffffffffffffffffffffffffffffffffff1681526020019081526020016000208190555080156115f6578273ffffffffffffffffffffffffffffffffffffffff168473ffffffffffffffffffffffffffffffffffffffff167f8c5be1e5ebec7d5bd14f71427d1e84f3dd0314c0f7b2291e5b200ac8c7c3b925846040516115ed9190611aff565b60405180910390a35b50505050565b600073ffffffffffffffffffffffffffffffffffffffff168373ffffffffffffffffffffffffffffffffffffffff160361164e5780600260008282546116429190612571565b92505081905550611721565b60008060008573ffffffffffffffffffffffffffffffffffffffff1673ffffffffffffffffffffffffffffffffffffffff168152602001908152602001600020549050818110156116da578381836040517fe450d38c0000000000000000000000000000000000000000000000000000000081526004016116d19392919061253a565b60405180910390fd5b8181036000808673ffffffffffffffffffffffffffffffffffffffff1673ffffffffffffffffffffffffffffffffffffffff16815260200190815260200160002081905550505b600073ffffffffffffffffffffffffffffffffffffffff168273ffffffffffffffffffffffffffffffffffffffff160361176a57806002600082825403925050819055506117b7565b806000808473ffffffffffffffffffffffffffffffffffffffff1673ffffffffffffffffffffffffffffffffffffffff168152602001908152602001600020600082825401925050819055505b8173ffffffffffffffffffffffffffffffffffffffff168373ffffffffffffffffffffffffffffffffffffffff167fddf252ad1be2c89b69c2b068fc378daa952ba7f163c4a11628f55a4df523b3ef836040516118149190611aff565b60405180910390a3505050565b60008180519060200120838051906020012014905092915050565b6040518060a00160405280600073ffffffffffffffffffffffffffffffffffffffff1681526020016060815260200160608152602001600081526020016000151581525090565b600081519050919050565b600082825260208201905092915050565b60005b838110156118bd5780820151818401526020810190506118a2565b60008484015250505050565b6000601f19601f8301169050919050565b60006118e582611883565b6118ef818561188e565b93506118ff81856020860161189f565b611908816118c9565b840191505092915050565b6000602082019050818103600083015261192d81846118da565b905092915050565b6000604051905090565b600080fd5b600080fd5b600073ffffffffffffffffffffffffffffffffffffffff82169050919050565b600061197482611949565b9050919050565b61198481611969565b811461198f57600080fd5b50565b6000813590506119a18161197b565b92915050565b6000819050919050565b6119ba816119a7565b81146119c557600080fd5b50565b6000813590506119d7816119b1565b92915050565b600080604083850312156119f4576119f361193f565b5b6000611a0285828601611992565b9250506020611a13858286016119c8565b9150509250929050565b60008115159050919050565b611a3281611a1d565b82525050565b6000602082019050611a4d6000830184611a29565b92915050565b600060208284031215611a6957611a6861193f565b5b6000611a77848285016119c8565b91505092915050565b611a8981611969565b82525050565b611a98816119a7565b82525050565b600060a082019050611ab36000830188611a80565b8181036020830152611ac581876118da565b90508181036040830152611ad981866118da565b9050611ae86060830185611a8f565b611af56080830184611a29565b9695505050505050565b6000602082019050611b146000830184611a8f565b92915050565b600080600060608486031215611b3357611b3261193f565b5b6000611b4186828701611992565b9350506020611b5286828701611992565b9250506040611b63868287016119c8565b9150509250925092565b600060ff82169050919050565b611b8381611b6d565b82525050565b6000602082019050611b9e6000830184611b7a565b92915050565b600081519050919050565b600082825260208201905092915050565b6000819050602082019050919050565b611bd981611969565b82525050565b600082825260208201905092915050565b6000611bfb82611883565b611c058185611bdf565b9350611c1581856020860161189f565b611c1e816118c9565b840191505092915050565b611c32816119a7565b82525050565b611c4181611a1d565b82525050565b600060a083016000830151611c5f6000860182611bd0565b5060208301518482036020860152611c778282611bf0565b91505060408301518482036040860152611c918282611bf0565b9150506060830151611ca66060860182611c29565b506080830151611cb96080860182611c38565b508091505092915050565b6000611cd08383611c47565b905092915050565b6000602082019050919050565b6000611cf082611ba4565b611cfa8185611baf565b935083602082028501611d0c85611bc0565b8060005b85811015611d485784840389528151611d298582611cc4565b9450611d3483611cd8565b925060208a01995050600181019050611d10565b50829750879550505050505092915050565b60006020820190508181036000830152611d748184611ce5565b905092915050565b600060208284031215611d9257611d9161193f565b5b6000611da084828501611992565b91505092915050565b6000602082019050611dbe6000830184611a80565b92915050565b600080fd5b600080fd5b7f4e487b7100000000000000000000000000000000000000000000000000000000600052604160045260246000fd5b611e06826118c9565b810181811067ffffffffffffffff82111715611e2557611e24611dce565b5b80604052505050565b6000611e38611935565b9050611e448282611dfd565b919050565b600067ffffffffffffffff821115611e6457611e63611dce565b5b611e6d826118c9565b9050602081019050919050565b82818337600083830152505050565b6000611e9c611e9784611e49565b611e2e565b905082815260208101848484011115611eb857611eb7611dc9565b5b611ec3848285611e7a565b509392505050565b600082601f830112611ee057611edf611dc4565b5b8135611ef0848260208601611e89565b91505092915050565b60008060408385031215611f1057611f0f61193f565b5b600083013567ffffffffffffffff811115611f2e57611f2d611944565b5b611f3a85828601611ecb565b925050602083013567ffffffffffffffff811115611f5b57611f5a611944565b5b611f6785828601611ecb565b9150509250929050565b60008060408385031215611f8857611f8761193f565b5b6000611f9685828601611992565b9250506020611fa785828601611992565b9150509250929050565b7f4e487b7100000000000000000000000000000000000000000000000000000000600052602260045260246000fd5b60006002820490506001821680611ff857607f821691505b60208210810361200b5761200a611fb1565b5b50919050565b7f496e76616c696420494400000000000000000000000000000000000000000000600082015250565b6000612047600a8361188e565b915061205282612011565b602082019050919050565b600060208201905081810360008301526120768161203a565b9050919050565b7f416c726561647920566572696669656400000000000000000000000000000000600082015250565b60006120b360108361188e565b91506120be8261207d565b602082019050919050565b600060208201905081810360008301526120e2816120a6565b9050919050565b7f4e487b7100000000000000000000000000000000000000000000000000000000600052601160045260246000fd5b6000612123826119a7565b915061212e836119a7565b925082820261213c816119a7565b91508282048414831517612153576121526120e9565b5b5092915050565b60008190508160005260206000209050919050565b6000815461217c81611fe0565b612186818661188e565b945060018216600081146121a157600181146121b7576121ea565b60ff1983168652811515602002860193506121ea565b6121c08561215a565b60005b838110156121e2578154818901526001820191506020810190506121c3565b808801955050505b50505092915050565b60006040820190506122086000830185611a8f565b818103602083015261221a818461216f565b90509392505050565b7f4e487b7100000000000000000000000000000000000000000000000000000000600052603260045260246000fd5b60006020601f8301049050919050565b600082821b905092915050565b60006008830261229f7fffffffffffffffffffffffffffffffffffffffffffffffffffffffffffffffff82612262565b6122a98683612262565b95508019841693508086168417925050509392505050565b6000819050919050565b60006122e66122e16122dc846119a7565b6122c1565b6119a7565b9050919050565b6000819050919050565b612300836122cb565b61231461230c826122ed565b84845461226f565b825550505050565b600090565b61232961231c565b6123348184846122f7565b505050565b5b818110156123585761234d600082612321565b60018101905061233a565b5050565b601f82111561239d5761236e8161215a565b61237784612252565b81016020851015612386578190505b61239a61239285612252565b830182612339565b50505b505050565b600082821c905092915050565b60006123c0600019846008026123a2565b1980831691505092915050565b60006123d983836123af565b9150826002028217905092915050565b6123f282611883565b67ffffffffffffffff81111561240b5761240a611dce565b5b6124158254611fe0565b61242082828561235c565b600060209050601f8311600181146124535760008415612441578287015190505b61244b85826123cd565b8655506124b3565b601f1984166124618661215a565b60005b8281101561248957848901518255600182019150602085019450602081019050612464565b868310156124a657848901516124a2601f8916826123af565b8355505b6001600288020188555050505b505050505050565b600060408201905081810360008301526124d581856118da565b905081810360208301526124e981846118da565b90509392505050565b60006124fd826119a7565b91507fffffffffffffffffffffffffffffffffffffffffffffffffffffffffffffffff820361252f5761252e6120e9565b5b600182019050919050565b600060608201905061254f6000830186611a80565b61255c6020830185611a8f565b6125696040830184611a8f565b949350505050565b600061257c826119a7565b9150612587836119a7565b925082820190508082111561259f5761259e6120e9565b5b9291505056fea2646970667358221220bfc8fcbc44e121de4972cbc645fa06e025502086522d3b014ac90c4130727e0264736f6c634300081e0033",
  "linkReferences": {},
  "deployedLinkReferences": {}
}